S01800006275696C642F6D696361322F6D61696E2E737265632D
S11300000C9449000C9468000C9468000C946800EB
S11300100C9468000C9468000C9468000C946800BC
S11300200C9468000C9468000C9468000C946800AC
S11300300C9468000C9468000C9468000C9468009C
S11300400C9468000C9470000C9468000C94680084
S11300500C9468000C9468000C9468000C9468007C
S11300600C9468000C9468000C9468000C9468006C
S11300700C9468000C9468000C9468000C9468005C
S11300800C9468000C9468000C94680000081C1818
S1130090141011241FBECFEFD0E1DEBFCDBF11E09D
S11300A0A0E0B1E0EEEEF2E000E00BBF02C007908A
S11300B00D92A030B107D9F711E0A0E0B1E001C082
S11300C01D92A530B107E1F70E94C2000C9476019D
S11300D00C9400008FB7F894992708958FBF089562
S11300E01F920F920FB60F9211248F938FB18091AC
S11300F003018FB98F910F900FBE0F901F90189529
S1130100880F949890E087FF02C0979A01C097984F
S11301109698969A9F5F973011F0880FF4CF979A2C
S11301209698969A949A80E067FF02C0979A01C0C5
S113013097989698969A8F5F883011F0660FF4CF4F
S1130140949A979A969A0895809100018F3F19F492
S113015080E090E00895282F3327F901E050FF4F05
S11301608081809300018F3F11F4809304018FEF0D
S1130170808390E02F3F09F491E081E09827892F54
S1130180992708951F931FB7F8948FEF8093000168
S11301908093040181E08EBD88E080BF83E083BF4B
S11301A08CB59DB54AE72CB53DB52817390708F439
S11301B04150442311F0C901F6CF92B782B7891791
S11301C0E9F32CB53DB592B782B78917E9F38CB53D
S11301D09DB5821B930B409625E0969587952A95AD
S11301E0E1F7909302018093010113BE83B78EBDA2
S11301F08EB580BF12BE1DBC1CBC8FEF86BF86B7F8
S113020080937C0080B7992787709070892BD1F7F1
S113021015BA8FEF84BBD498DC98D6988C9A8E9AB2
S11302208F9A949A979A969A6FE380E00E9480003E
S113023060E08BE00E948000B998BF98BB98BA98A0
S113024080E285BF0E94A4008823E1F70E94A400F5
S11302508823E1F7812F99278FBF78948FB7F8947B
S1130260482F55272CC087B7887BC1F480917D0027
S11302708B7FA1F46E9912C08AB190919A00892B58
S1130280807C61F48091740082FD08C0379B03C0B8
S1130290E1E0F0E005C0E5E0F0E002C0E0E0F0E01D
S11302A085B7E63008F0E5E0FF27E457FF4FE49117
S11302B0837E8062E82BE5BF78948895F8948091DA
S11302C000018F3F81F2282F3327F901E050FF4FBF
S11302D08081809300018F3F11F4809304018FEF9C
S11102E080832F3F09F4BFCF4FBFB8CFFFCFAD
S9030000FC
