S01800006275696C642F6D6963617A2F6D61696E2E73726563E5
S11300000C948A000C94A9000C94A9000C94A900E7
S11300100C94A9000C94A9000C94A9000C94A900B8
S11300200C94A9000C94A9000C94A9000C94A900A8
S11300300C94A9000C94A9000C94A9000C94A90098
S11300400C94A9000C94A9000C94A9000C94A90088
S11300500C94A9000C94A9000C94A9000C94A90078
S11300600C94A9000C94A9000C94A9000C94A90068
S11300700C94A9000C94A9000C94A9000C94A90058
S11300800C94A9000C94A9000C94A90007634236AF
S1130090B79BD8A71A39685618AEBAAB558C1D3C15
S11300A0B7CC5763BD6DEDFD753EF6177231BF00D9
S11300B00000803F08000000BE922449123EABAA13
S11300C0AA2ABECDCCCC4C3E00000080BEABAAAA6E
S11300D0AA3E00000000BF000000803F00000000B6
S11300E000084178D3BB4387D1133D190E3CC3BDEF
S11300F04282AD2B3E68EC8276BED98FE1A93E4C9C
S113010080EFFFBE01C4FF7F3F0000000000000835
S11301101C18141011241FBECFEFD0E1DEBFCDBFD9
S113012012E0A0E0B1E0ECE8F6E400E00BBF02C0AE
S113013007900D92A630B107D9F712E0A6E0B2E01D
S113014001C01D92AE30B107E1F70E940F0E0C946E
S113015045230C9400008FB7F894992708958FBF16
S11301600895809106028F3F19F480E090E008958D
S1130170282F3327F901EA5FFD4F8081809306021F
S11301808F3F11F4809309028FEF808390E02F3F1B
S113019009F491E081E09827892F992708952F92F7
S11301A03F924F925F926F927F928F929F92AF9203
S11301B0BF92CF92DF92EF92FF920F931F93CF9350
S11301C0DF93CDB7DEB728970FB6F894DEBF0FBE26
S11301D0CDBF29833A834B835C836D837E838F8376
S11301E098872A2C3B2C4C2C5D2C6E2C7F2C802E3B
S11301F0912E822F832B842B852B862B872BFF819B
S11302008F2B9885892B09F00DC11EC1E8859E1698
S113021058F1E91509F097C08F81881628F18815DF
S113022009F091C0EE817E16F8F0E71509F08BC055
S11302308D816816C8F0861509F085C0EC815E16BC
S113024098F0E51509F07FC08B81481668F0841595
S113025009F079C0EA813E1638F0E31509F073C05D
S11302608981281608F06FC00981021981E09981FB
S1130270901708F080E01A811319A1E0EA81E117D0
S113028008F0A0E0F12FF81B8F2F91E01F1708F062
S113029090E0A92B182F2B812419B1E08B818217B0
S11302A008F0B0E0822F8A1B91E0281708F090E054
S11302B0B92B282F3C813519A1E09C81931708F0B4
S11302C0A0E0832F8B1B91E0381708F090E0A92B56
S11302D0382F4D814619B1E0ED81E41708F0B0E004
S11302E0842F8A1B91E0481708F090E0B92B482F1F
S11302F05E815719A1E0FE81F51708F0A0E0852F73
S11303008B1B91E0581708F090E0A92B582F6F81B0
S1130310681991E08F81861708F090E0862F8A1B78
S1130320E1E0681708F0E0E09E2B682F78857919E2
S1130330872F891B09831A832B833C834D835E8318
S11303406F8388876FC0022D9981091B81E0201675
S113035008F080E0132DEA811E1BA1E0311608F09D
S1130360A0E0F12FF81B8F2F91E01F1708F090E009
S1130370A92B182F242D8B81281BB1E0421608F0DD
S1130380B0E0822F8A1B91E0281708F090E0B92B87
S1130390282F352D9C81391BA1E0531608F0A0E0CD
S11303A0832F8B1B91E0381708F090E0A92B382F8E
S11303B0462DED814E1BB1E0641608F0B0E0842FA9
S11303C08A1B91E0481708F090E0B92B482F572D6D
S11303D0FE815F1BA1E0751608F0A0E0852F8B1B42
S11303E091E0581708F090E0A92B582F682D8F81C1
S11303F0681B91E0861608F090E0862F8A1BE1E0E6
S1130400681708F0E0E09E2B682F792DE8857E1BA5
S1130410872F891B202E312E422E532E642E752EAB
S1130420862E982E822D8329842985298629872939
S11304308829892909F0EACE29803A804B805C809A
S11304406D807E808F809884222D332D442D552DF0
S1130450662D772D882D992D28960FB6F894DEBF3A
S11304600FBECDBFDF91CF911F910F91FF90EF9001
S1130470DF90CF90BF90AF909F908F907F906F90C0
S11304805F904F903F902F9008952F923F924F92FC
S11304905F926F927F928F929F92AF92BF92CF9210
S11304A0DF92EF92FF920F931F93CF93DF93CDB719
S11304B0DEB7C255D0400FB6F894DEBF0FBECDBF35
S11304C0298F3A8F4B8F5C8F6D8F7E8F8F8F98A380
S11304D0A8968FADA89789A3A9969FADA9979AA32B
S11304E0AA96EFADAA97EBA3AB96FFADAB97FCA38F
S11304F0AC968FADAC978DA3AD969FADAD979EA3F3
S1130500AE96EFADAE97EFA3AF96FFADAF97F8A75A
S1130510E0962FACE097E1963FACE197E2964FACC2
S1130520E297E3965FACE397E4966FACE497E596C5
S11305307FACE597E6968FACE697E7969FACE79796
S1130540E8962FADE897E9963FADE997EA964FAD67
S1130550EA97EB965FADEB97EC966FADEC97ED9663
S11305607FADED97EE968FADEE97EF969FADEF973B
S1130570A22EB32EC42ED52EE62EF72E082F192F19
S1130580222D332D442D552D662D772D882D992D13
S11305900E94B20E992E29873A874B875C876D8714
S11305A07E878F87988B80E390E00E9449229AA7E8
S11305B089A7AA24BB24CC24DD24EE24FF2400E054
S11305C010E029853A854B855C856D857E858F8510
S11305D0992D0E94331018165CF429853A854B85B1
S11305E05C856D857E858F85992D0E94C11E33C0E3
S11305F0898581708BA71CA61DA61EA61FA618AAF6
S113060019AA1AAA01E029853A854B855C856D856E
S11306107E858F85992D0E94B00FABA4A22ABB249E
S1130620B32ACC24C42ADD24D52AEE24E62AFF24C6
S1130630F72A00E0082B10E0192B2A2D3B2D4C2D16
S11306405D2D6E2D7F2D802F912F0E94C11E9B0149
S1130650AC010E94231E9B01AC010E94641F6BAB82
S11306607CAB8DAB9EAB94E099831A821B821C8277
S11306701D821E821F82188692E0292E3324442470
S113068055246624772488249924E885E91558F1AB
S11306909E1609F098C08F81881528F1881609F0F4
S11306A092C0EE81E715F8F07E1609F08CC08D81BA
S11306B08615C8F0681609F086C0EC81E51598F037
S11306C05E1609F080C08B81841568F0481609F025
S11306D07AC0EA81E31538F03E1609F074C08981C6
S11306E0821508F070C0022D9981091B81E0201643
S11306F008F080E0132DEA811E1BE1E0311608F0BA
S1130700E0E0F12FF81B8F2F91E01F1708F090E025
S1130710E92B182F242D8B81281BF1E0421608F0B9
S1130720F0E0822F8E1B91E0281708F090E0F92B5F
S1130730282F352D9C81391BE1E0531608F0E0E0A9
S1130740832F8F1B91E0381708F090E0E92B382FA6
S1130750462DFD814F1BF1E0641608F0F0E0842F74
S11307608E1B91E0481708F090E0F92B482F572D85
S11307708E81581BE1E0751608F0E0E0852F8F1B91
S113078091E0581708F090E0E92B582F682D9F81CD
S1130790691B91E0861608F090E0862F8E1BE1E03D
S11307A0681708F0E0E09E2B682F792DE8857E1B02
S11307B0872F891B202E312E422E532E642E752E08
S11307C0862E982E6EC00981021981E0F981F017F6
S11307D008F080E01A811319E1E09A81911708F07A
S11307E0E0E0F12FF81B8F2F91E01F1708F090E045
S11307F0E92B182F2B812419F1E08B81821708F043
S1130800F0E0822F8E1B91E0281708F090E0F92B7E
S1130810282F3C813519E1E09C81931708F0E0E032
S1130820832F8F1B91E0381708F090E0E92B382FC5
S11308304D814619F1E08D81841708F0F0E0842F92
S11308408E1B91E0481708F090E0F92B482F5E8149
S11308505719E1E09E81951708F0E0E0852F8F1B82
S113086091E0581708F090E0E92B582F6F81681930
S113087091E0FF81F61708F090E0862F8E1BE1E0EF
S1130880681708F0E0E09E2B682F78857919872F88
S1130890891B09831A832B833C834D835E836F8377
S11308A0888789819A81892BEB818E2BFC818F2B00
S11308B09D81892BEE818E2BFF818F2B9885892B2F
S11308C009F0E3CEA22CB32CC42CD52CE62CF72CA7
S11308D0082D192D28E030E040E050E060E070E0A1
S11308E090E00E94E710222E332E442E552E662EC1
S11308F0772E882E992EAA24BB24CC24DD24EE2422
S1130900FF2400E010E00E94331018165CF4222D3E
S1130910332D442D552D662D772D882D992D0E942C
S1130920C11E39C0E22DE170EBAF1CAE1DAE1EAE90
S11309301FAE21961FAE219722961FAE22972396B3
S11309401FAE239701E0222D332D442D552D662D06
S1130950772D882D992D0E94B00FABACA22ABB2411
S1130960B32ACC24C42ADD24D52AEE24E62AFF2483
S1130970F72A00E0082B10E0192B2A2D3B2D4C2DD3
S11309805D2D6E2D7F2D802F912F0E94C11E9B0106
S1130990AC010E94231E6FAB78AF89AF9AAFAA2433
S11309A0BB24CC24DD24EE24FF2400E010E0298DB8
S11309B03A8D4B8D5C8D6D8D7E8D8F8D98A10E94AF
S11309C0331018165CF4298D3A8D4B8D5C8D6D8D2A
S11309D07E8D8F8D98A10E94C11E45C0F98DF17046
S11309E02496FFAF249725961FAE259726961FAE13
S11309F0269727961FAE279728961FAE28972996E5
S1130A001FAE29972A961FAE2A972B961FAE2B97B7
S1130A1001E0298D3A8D4B8D5C8D6D8D7E8D8F8D92
S1130A2098A10E94B00F2496AFAC2497A22ABB24AD
S1130A30B32ACC24C42ADD24D52AEE24E62AFF24B2
S1130A40F72A00E0082B10E0192B2A2D3B2D4C2D02
S1130A505D2D6E2D7F2D802F912F0E94C11E9B0135
S1130A60AC010E94231E2FA938AD49AD5AAD0E9496
S1130A70C71F0E948C1E298B3A8B4B8B5C8B6D8B12
S1130A807E8B8F8B988FE9A5FAA5208331834283CF
S1130A905383648375838F898683988D97836BA929
S1130AA07CA98DA99EA90E948C1EA22EB32EC42EB1
S1130AB0D52EE62EF72E082F192F29893A894B892E
S1130AC05C896D897E898F89988D0E94C817A22EB2
S1130AD0B32EC42ED52EE62EF72E082F192FEFEFA6
S1130AE02C96EFAF2C972D96EFAF2D972E96EFAF58
S1130AF02E972F96EFAF2F976096EFAF6097619682
S1130B00EFAF61976296EFAF62976396EFAF63972B
S1130B108FEF282E2A0C81E02A1408F080E02D960D
S1130B203FAC2D973B0C21E03B1408F020E0830DF3
S1130B3091E0831508F090E0292B382E2E964FACC7
S1130B402E974C0C31E04C1408F030E0822F840DC9
S1130B5091E0841508F090E0392B482E2F965FAC75
S1130B602F975D0C21E05D1408F020E0832F850DA4
S1130B7091E0851508F090E0292B582E60966FAC13
S1130B8060976E0C31E06E1408F030E0822F860D11
S1130B9091E0861508F090E0392B682E61967FACC1
S1130BA061977F0C21E07F1408F020E0832F870DEC
S1130BB091E0871508F090E0292B782E62968FAC8F
S1130BC06297800E31E0801608F030E0822F880DA5
S1130BD091E0881508F090E0932B63969FAC63979F
S1130BE0910E990DA984BA84CB84DC84ED84FE84AF
S1130BF00F851889222D332D442D552D662D772DE3
S1130C000E94E710A9A0BAA0CBA0DCA0EDA0FEA092
S1130C100FA118A50E94B20EA984BA84CB84DC84E7
S1130C20ED84FE840F8518890E94C817CE5ADF4FC1
S1130C300FB6F894DEBF0FBECDBFDF91CF911F91E9
S1130C400F91FF90EF90DF90CF90BF90AF909F9067
S1130C508F907F906F905F904F903F902F9008956A
S1130C602F923F924F925F926F927F928F929F92B8
S1130C70AF92BF92CF92DF92EF92FF920F931F93A6
S1130C80CF93DF93CDB7DEB7C454D0400FB6F894FA
S1130C90DEBF0FBECDBF222E332E442E552E662E20
S1130CA0772E882E992EA98ABA8ACB8ADC8AED8A75
S1130CB0FE8A0F8B188F6A968FAD6A97898F6B9611
S1130CC0EFAD6B97EA8F6C96FFAD6C97FB8F6D96CB
S1130CD08FAD6D978C8F6E96EFAD6E97ED8F6F968F
S1130CE0FFAD6F97FE8FA0968FADA0978F8FA196C3
S1130CF0EFADA197E8A380E590E00E944922988B8C
S1130D008F8788E290E00E9449229E878D87AA24DB
S1130D10BB24CC24DD24EE24FF2400E010E0222DAB
S1130D20332D442D552D662D772D882D992D0E9418
S1130D30331018165CF4222D332D442D552D662DB9
S1130D40772D882D992D0E94C11E33C0F22DF1708C
S1130D50FDA31EA21FA218A619A61AA61BA61CA6AE
S1130D6001E0222D332D442D552D662D772D882D10
S1130D70992D0E94B00FADA0A22ABB24B32ACC2483
S1130D80C42ADD24D52AEE24E62AFF24F72A00E02B
S1130D90082B10E0192B2A2D3B2D4C2D5D2D6E2D8B
S1130DA07F2D802F912F0E94C11E9B01AC010E94B8
S1130DB0231E69A37AA38BA39CA3AA24BB24CC24BB
S1130DC0DD24EE24FF2400E010E029893A894B89D0
S1130DD05C896D897E898F89988D0E9433101816DD
S1130DE05CF429893A894B895C896D897E898F896C
S1130DF0988D0E94C11E33C0898981708DA71EA65B
S1130E001FA618AA19AA1AAA1BAA1CAA01E02989B2
S1130E103A894B895C896D897E898F89988D0E9476
S1130E20B00FADA4A22ABB24B32ACC24C42ADD2447
S1130E30D52AEE24E62AFF24F72A00E0082B10E046
S1130E40192B2A2D3B2D4C2D5D2D6E2D7F2D802FA2
S1130E50912F0E94C11E9B01AC010E94231E29A157
S1130E603AA14BA15CA10E94C71F0E948C1E29833A
S1130E703A834B835C836D837E838F839887ED8570
S1130E80FE852083318342835383648375838F81FA
S1130E9086839783AA24BB24CC24DD24EE24FF2458
S1130EA000E010E0298D3A8D4B8D5C8D6D8D7E8D2B
S1130EB08F8D98A10E94331018165CF4298D3A8DF9
S1130EC04B8D5C8D6D8D7E8D8F8D98A10E94C11E82
S1130ED033C0E98DE170EDAB1EAA1FAA18AE19AE9E
S1130EE01AAE1BAE1CAE01E0298D3A8D4B8D5C8D84
S1130EF06D8D7E8D8F8D98A10E94B00FADA8A22A12
S1130F00BB24B32ACC24C42ADD24D52AEE24E62A21
S1130F10FF24F72A00E0082B10E0192B2A2D3B2D83
S1130F204C2D5D2D6E2D7F2D802F912F0E94C11E83
S1130F309B01AC010E94231E69877A878B879C875B
S1130F4029853A854B855C8560E070E080E890E413
S1130F500E94C71F0E948C1EEF85F889208331836D
S1130F60428353836483758386839783A22EB32E2F
S1130F70C42ED52EE62EF72E082F192F29813A815B
S1130F804B815C816D817E818F8198850E94B20E38
S1130F902DAF3EAF4FAF21965FAF219722966FAF33
S1130FA0229723967FAF239724968FAF2497259675
S1130FB09FAF259729853A854B855C85CA01B90180
S1130FC00E94641F0E948C1EA22EB32EC42ED52E06
S1130FD0E62EF72E082F192F2DAD3EAD4FAD2196DD
S1130FE05FAD219722966FAD229723967FAD23970D
S1130FF024968FAD249725969FAD25970E94C817F8
S1131000CC5BDF4F0FB6F894DEBF0FBECDBFDF91D0
S1131010CF911F910F91FF90EF90DF90CF90BF90F1
S1131020AF909F908F907F906F905F904F903F9084
S11310302F9008952F923F924F925F926F927F92DA
S11310408F929F92AF92BF92CF92DF92EF92FF92D4
S11310500F931F93CF93DF93CDB7DEB7C056D04025
S11310600FB6F894DEBF0FBECDBF1B8E1C8E1D8E37
S11310701E8E1F8E18A219A21AA21BA21CA21DA2A8
S11310801EA21FA218A619A61AA61BA61CA61DA658
S11310901EA61FA618AA19AA1AAA1BAA1CAA1DAA28
S11310A01EAA1FAA18AE19AE1AAE1BAE1CAE1DAEF8
S11310B01EAE1FAE21961FAE219722961FAE229719
S11310C023961FAE23978DB79EB7A1969FAF8EAF81
S11310D0A197EDB7FEB7E857F0400FB6F894FEBFFE
S11310E00FBEEDBF8DB79EB7019627969FAF8EAF0B
S11310F0279780E590E00E94492225969FAF8EAF06
S1131100259738E0A32EBB24CC24DD24EE24FF2431
S113111000E010E02FE030E040E050E060E070E0FC
S113112080E090E00E94CF00A22EB32EC42ED52ED4
S1131130E62EF72E082F192F91E0A91609F04CC5B9
S1131140BB2009F049C5CC2009F046C5DD2009F0D3
S113115043C5EE2009F040C5FF2009F03DC500233A
S113116009F03AC5112309F037C524E0A22E22E084
S113117030E040E050E060E070E080E090E00E9409
S1131180CF00A22EB32EC42ED52EE62EF72E082F76
S1131190192F28E030E040E050E060E070E080E0AB
S11311A090E00E94E710222E332E442E552E662EF8
S11311B0772E882E992EAA24BB24CC24DD24EE2459
S11311C0FF2400E010E00E94331018165CF4222D76
S11311D0332D442D552D662D772D882D992D0E9464
S11311E0C11E45C0E22DE1702896EFAF28972996DD
S11311F01FAE29972A961FAE2A972B961FAE2B97C0
S11312002C961FAE2C972D961FAE2D972E961FAEA3
S11312102E972F961FAE2F9701E0222D332D442DAC
S1131220552D662D772D882D992D0E94B00F289667
S1131230AFAC2897A22ABB24B32ACC24C42ADD2429
S1131240D52AEE24E62AFF24F72A00E0082B10E032
S1131250192B2A2D3B2D4C2D5D2D6E2D7F2D802F8E
S1131260912F0E94C11E9B01AC010E94231E9B0171
S1131270AC0160E070E080E090E40E94C71F0E942F
S11312808C1E222E332E442E552E662E772E882E1B
S1131290992E2596EEADFFAD2597208331834283A9
S11312A05383648375838683978391EEA92EBB242D
S11312B0CC24DD24EE24FF2400E010E0222D332D85
S11312C0442D552D662D772D882D992D0E94C817F4
S11312D0A22EB32EC42ED52EE62EF72E082F192FAC
S11312E0FFEF6096FFAF60976196FFAF61976296DC
S11312F0FFAF62976396FFAF63976496FFAF6497FF
S11313006596FFAF65976696FFAF66976796FFAFE2
S113131067978FEF282E2A0C81E02A1408F080E0CA
S113132061963FAC61973B0C21E03B1408F020E050
S1131330830D91E0831508F090E0292B382E6296F6
S11313404FAC62974C0C31E04C1408F030E0822F23
S1131350840D91E0841508F090E0392B482E6396B3
S11313605FAC63975D0C21E05D1408F020E0832FEF
S1131370850D91E0851508F090E0292B582E649690
S11313806FAC64976E0C31E06E1408F030E0822F7D
S1131390860D91E0861508F090E0392B682E65964D
S11313A07FAC65977F0C21E07F1408F020E0832F49
S11313B0870D91E0871508F090E0292B782E66962A
S11313C08FAC6697800E31E0801608F030E0822FF3
S11313D0880D91E0881508F090E0932B67969FACF8
S11313E06797910E990DBFE0AB2EBB24CC24DD246E
S11313F0EE24FF2400E010E0222D332D442D552D42
S1131400662D772D0E94E7102B8B3C8B4D8B5E8BCA
S11314106F8B788F898F9A8F0E94CF00A22EB32E64
S1131420C42ED52EE62EF72E082F192F81E0A816EC
S113143009F0D2C3BB2009F0CFC3CC2009F0CCC340
S1131440DD2009F0C9C3EE2009F0C6C3FF2009F06E
S1131450C3C3002309F0C0C3112309F0BDC32796F9
S1131460EEADFFAD27973896FA8BE98BA1E02A2ED3
S11314703324442455246624772488249924FFE0C3
S1131480AF2EBB24CC24DD24EE24FF2400E010E0A6
S1131490222D332D442D552D662D772D882D992DF4
S11314A00E94CF00F1E02F17C1F43323B1F4442399
S11314B0A1F4552391F4662381F4772371F48823EE
S11314C061F4992351F4E989FA89208231824282B4
S11314D053826482758286829782E1E0AE2EBB24B9
S11314E0CC24DD24EE24FF2400E010E0222D2A0D7C
S11314F0E1E0221508F0E0E0332D3B0DA1E03315C7
S113150008F0A0E0E30FF1E0E31708F0F0E0AF2B00
S11315103E2F442D4C0DB1E0441508F0B0E0EA2F05
S1131520E40FF1E0E41708F0F0E0BF2B4E2F552D47
S11315305D0DA1E0551508F0A0E0EB2FE50FF1E0FB
S1131540E51708F0F0E0AF2B5E2F662D6E0DB1E0CD
S1131550661508F0B0E0EA2FE60FF1E0E61708F0B0
S1131560F0E0BF2B6E2F772D7F0DA1E0771508F0EB
S1131570A0E0EB2FE70FF1E0E71708F0F0E0AF2B66
S11315807E2F882D800FB1E0881508F0B0E0EA2F97
S1131590E80FF1E0E81708F0F0E0FB2B992D910F2C
S11315A0F90F222E332E442E552E662E772E8E2E94
S11315B09F2E89899A8908969A8B898B9FE029178F
S11315C009F05DCF332309F05ACF442309F057CFF4
S11315D0552309F054CF662309F051CF772309F03E
S11315E04ECFEE2309F04BCFFF2309F048CF2796C7
S11315F0EEADFFAD2797389671E0272E992420E0B1
S113160030E080819B89891729F581819C8989171C
S113161009F582819D898917E9F483819E89891757
S1131620C9F484819F898917A9F48581988D8917C4
S113163089F48681998D891769F487819A8D891730
S113164049F462E0262E3324442455246624772466
S1131650882499243896285F3F4F2037310589F62E
S113166052E0A52EBB24CC24DD24EE24FF2400E08C
S113167010E0222D332D442D552D662D772D882DE8
S1131680992D0E948D10813009F05BC1EB89E987A7
S1131690FC89FA878D898B879E899C87EF89ED87E2
S11316A0F88DFE87898D8F879A8D988B41E0242E43
S11316B033244424552466247724882499243FE041
S11316C0A32EBB24CC24DD24EE24FF2400E010E070
S11316D029853A854B855C856D857E858F859889BE
S11316E00E94C817E1E02E17B1F43323A1F4442378
S11316F091F4552381F4662371F4772361F48823EC
S113170051F4992341F42B8E3C8E4D8E5E8E6F8E58
S113171078A289A29AA2F1E06896FFAF68976996C9
S11317201FAE69976A961FAE6A976B961FAE6B974A
S11317306C961FAE6C976D961FAE6D976E961FAE2E
S11317406E976F961FAE6F9701E0020D81E0021550
S113175008F080E069961FAD6997130DE1E0131559
S113176008F0E0E0810F91E0811708F090E0E92BA8
S1131770182F6A962FAD6A97240DF1E0241508F00E
S1131780F0E08E2F820F91E0821708F090E0F92BA1
S1131790282F6B963FAD6B97350DE1E0351508F0BA
S11317A0E0E08F2F830F91E0831708F090E0E92B9E
S11317B0382F6C964FAD6C97460DF1E0461508F046
S11317C0F0E08E2F840F91E0841708F090E0F92B5D
S11317D0482F6D965FAD6D97570DE1E0571508F0F2
S11317E0E0E08F2F850F91E0851708F090E0E92B5A
S11317F0582F6E966FAD6E97680DF1E0681508F07E
S1131800F0E09E2F960F81E0961708F080E08F2B72
S11318106F967FAD6F97790D870F202E312E422E54
S1131820532E642E752E892E982E09858B89080FC8
S113183081E09985091708F080E01A85EC891E0F6C
S1131840E1E0FA851F1708F0E0E0810F91E08117CD
S113185008F090E0E92B182F2B858D89280FF1E0F3
S11318609B85291708F0F0E08E2F820F91E08217F4
S113187008F090E0F92B282F3C85EE893E0FE1E03B
S11318808C85381708F0E0E08F2F830F91E08317E1
S113189008F090E0E92B382F4D859F89490FF1E03E
S11318A08D85481708F0F0E08E2F840F91E084179F
S11318B008F090E0F92B482F5E85988D590FE1E0F0
S11318C08E85581708F0E0E08F2F850F91E085177B
S11318D008F090E0E92B582F6F85998D690FF1E09E
S11318E08F85681708F0F0E09E2F960F81E0961719
S11318F008F080E08F2B692F78899A8D790F870FF4
S113190009871A872B873C874D875E876F87888B6B
S1131910EFE02E1609F0D3CE332009F0D0CE4420C8
S113192009F0CDCE552009F0CACE662009F0C7CE05
S1131930772009F0C4CE882009F0C1CE992009F09F
S1131940BECE8DB79EB708970FB6F8949EBF0FBE54
S11319508DBF8BADEDB7FEB780879CAD91878DAD04
S113196082879EAD93878FAD848721969FAD219703
S1131970958722968FAD2297868723969FAD2397CE
S1131980978738970FB6F894FEBF0FBEEDBF8FE070
S11319908087118612861386148615861686178606
S11319A022E0A22EBB24CC24DD24EE24FF2400E07C
S11319B010E02BE030E040E050E060E070E080E0D8
S11319C090E00E943006222E332E442E552E662E91
S11319D0772E882E992EEDB7FEB738970FB6F89468
S11319E0FEBF0FBEEDBF8BA980879CA991878DA9EF
S11319F082879EA993878FA9848798AD958789AD9F
S1131A0086879AAD978738970FB6F894FEBF0FBEB6
S1131A10EDBF8FE0808711861286138614861586A3
S1131A20168617862EE030E040E050E060E070E07B
S1131A3080E090E00E94300629833A834B835C83E4
S1131A406D837E838F839887EDB7FEB7B0960FB60C
S1131A50F894FEBF0FBEEDBF8DB79EB708970FB6C3
S1131A60F8949EBF0FBE8DBF8BA5EDB7FEB78087E0
S1131A709CA591878DA582879EA593878FA5848732
S1131A8098A9958789A986879AA9978738970FB6C1
S1131A90F894FEBF0FBEEDBF85E0808711861286E5
S1131AA01386148615861686178638970FB6F8940B
S1131AB0FEBF0FBEEDBF83E08087118612861386BA
S1131AC0148615861686178638970FB6F894FEBFC7
S1131AD00FBEEDBF8B8D80879C8D91878D8D828706
S1131AE09E8D93878F8D848798A1958789A18687FA
S1131AF09AA19787222D332D442D552D662D772DB0
S1131B00882D992D0E944502EDB7FEB7B0960FB609
S1131B10F894FEBF0FBEEDBF8DB79EB708970FB602
S1131B20F8949EBF0FBE8DBF8BA1EDB7FEB7808723
S1131B309CA191878DA182879EA193878FA1848781
S1131B4098A5958789A586879AA5978738970FB60C
S1131B50F894FEBF0FBEEDBF85E080871186128624
S1131B601386148615861686178638970FB6F8944A
S1131B70FEBF0FBEEDBF83E08087118612861386F9
S1131B80148615861686178638970FB6F894FEBF06
S1131B900FBEEDBF8B8D80879C8D91878D8D828745
S1131BA09E8D93878F8D848798A1958789A1868739
S1131BB09AA1978729813A814B815C816D817E81CD
S1131BC08F8198850E944502EDB7FEB7B0960FB697
S1131BD0F894FEBF0FBEEDBFA1968EAD9FADA19749
S1131BE00FB6F8949EBF0FBE8DBFC05ADF4F0FB61D
S1131BF0F894DEBF0FBECDBFDF91CF911F910F913F
S1131C00FF90EF90DF90CF90BF90AF909F908F9018
S1131C107F906F905F904F903F902F9008951F9307
S1131C201FB7F8948FEF809306028093090281E036
S1131C308EBD88E080BF83E083BF8CB59DB54AE745
S1131C402CB53DB52817390708F44150442311F049
S1131C50C901F6CF92B782B78917E9F32CB53DB520
S1131C6092B782B78917E9F38CB59DB5821B930BA4
S1131C70409645E0969587954A95E1F7909308023A
S1131C808093070213BE83B78EBD8EB580BF12BE8C
S1131C901DBC1CBC8FEF86BF86B780937C0080B7C9
S1131CA0992787709070892BD1F715BA8FEF84BB71
S1131CB0D498DC9880E285BF0E94B1008823E1F7C4
S1131CC00E94B1008823E1F7812F99278FBF789470
S1131CD00E941A088FB7F894482F55272CC087B74D
S1131CE0887BC1F480917D008B7FA1F46E9912C032
S1131CF08AB190919A00892B807C61F48091740060
S1131D0082FD08C0379B03C0E1E0F0E005C0E5E0D8
S1131D10F0E002C0E0E0F0E085B7E63008F0E5E08E
S1131D20FF27E25FFE4FE491837E8062E82BE5BFEC
S1131D3078948895F894809106028F3F81F2282F39
S1131D403327F901EA5FFD4F8081809306028F3FBC
S1131D5011F4809309028FEF80832F3F09F4BFCFE2
S1131D604FBFB8CFACE2B0E0E8EBFEE00C94122237
S1131D70222E332E442E552E662E772E882E992E03
S1131D80FE013196A8E01192AA95E9F729823A82D8
S1131D904B825C826D827E828F829886FE013996A8
S1131DA0B8E01192BA95E9F7A986BA86CB86DC86A3
S1131DB0ED86FE860F87188B89819A81AB81BC8161
S1131DC089A79AA7ABA7BCA77C018D018FEF9FEFD2
S1131DD0A0E0B0E0E822F9220A231B2389A59AA5F2
S1131DE0ABA5BCA51D014424552489859A85AB85E2
S1131DF0BC858DA39EA3AFA3B8A75C016D018FEF33
S1131E009FEFA0E0B0E0A822B922CA22DB228DA174
S1131E109EA1AFA1B8A53D0188249924C801B701AA
S1131E20A60195010E94D12169A37AA38BA39CA347
S1131E30C801B701A40193010E94D1217B018C0147
S1131E40C201B101A60195010E94D1215B016C017F
S1131E50C201B101A40193010E94D1213B014C01B3
S1131E60EA0CFB1C0C1D1D1D89A19AA1ABA1BCA1F0
S1131E709D01442755272E0D3F1D401F511F2A1534
S1131E803B054C055D0540F480E090E0A1E0B0E046
S1131E90680E791E8A1E9B1ECA01AA27BB27860DBF
S1131EA0971DA81DB91D8D8F9E8FAF8FB8A3A90153
S1131EB03327222789A19AA1ABA1BCA1A070B0703D
S1131EC0280F391F4A1F5B1F298F3A8F4B8F5C8F56
S1131ED0A98CBA8CCB8CDC8CED8CFE8C0F8D18A16C
S1131EE0FE01719698E011929A95E9F7ED8AFE8ABF
S1131EF00F8B188F2D813E814F8158856DA17EA156
S1131F008FA198A50E94D1213B014C012D853E85CE
S1131F104F85588969A57AA58BA59CA50E94D121D6
S1131F202D893E894F89588D260F371F481F591F09
S1131F30260D371D481D591D2D8B3E8B4F8B588FF9
S1131F406D887E888F88988C2A2D3B2D4C2D5D2D95
S1131F50662D772D882D992DE2E1AC960C942E22D6
S1131F60A0E1B0E0E6EBFFE00C941222222E332E27
S1131F70442E552E662E772E882E992E002309F492
S1131F8066C088E0FE01319611928A95E9F72983AB
S1131F903A834B835C836D837E838F829887E0E2F0
S1131FA0E01B1E16CCF52D813E814F815885602F94
S1131FB0772767FD7095DA01C901062E04C0B6952E
S1131FC0A795979587950A94D2F78D879E87AF87B3
S1131FD0B88B04C0220F331F441F551FEA95D2F754
S1131FE089819A81AB81BC8104C0B695A7959795E8
S1131FF087956A95D2F7282B392B4A2B5B2B298797
S11320003A874B875C8729843A844B845C846D844B
S11320107E848F8498881BC01D861E861F86188A1E
S11320202E2F332727FD3095309521953F4F8D81F5
S11320309E81AF81B88504C0B695A795979587957D
S11320402A95D2F789879A87AB87BC87DCCF222D64
S1132050332D442D552D662D772D882D992DE2E1B4
S113206060960C942E22A0E1B0E0E9E3F0E10C9438
S11320701222222E332E442E552E662E772E882E93
S1132080992EA8E0FE013196BA2F1192BA95E9F77C
S113209029823A824B825C826D827E828F8298860C
S11320A0FE0139961192AA95E9F7A986BA86CB86DC
S11320B0DC86ED86FE860F87188B2D813E814F814D
S11320C058858D859E85AF85B889281739074A07B5
S11320D05B07D4F082179307A407B50794F029810E
S11320E03A814B815C8189859A85AB85BC852817AB
S11320F039074A075B0740F082179307A407B5071F
S113210030F482E090E005C080E090E002C081E01D
S113211090E0E2E160960C942E22A0E1B0E0E3E9C5
S1132120F0E10C941222222E332E442E552E662ECC
S1132130772E882E992EA8E0FE013196BA2F11929F
S1132140BA95E9F729823A824B825C826D827E825B
S11321508F829886FE0139961192AA95E9F7A9868D
S1132160BA86CB86DC86ED86FE860F87188B2D819A
S11321703E814F8158858D859E85AF85B889281706
S113218039074A075B07D0F082179307A407B507FE
S113219090F029813A814B815C8189859A85AB8550
S11321A0BC85281739074A075B0740F08217930755
S11321B0A407B50730F482E090E005C080E090E029
S11321C002C081E090E0E2E160960C942E22ACE63D
S11321D0B0E0EDEEF0E10C941222222E332E442EC8
S11321E0552E662E772E882E992E2A2DA8E0FE01D4
S11321F03196AA2E1192AA94E9F729823A824B8247
S11322005C826D827E828F829886FE01399611925D
S1132210AA95E9F72987BA86CB86DC86ED86FE8601
S11322200F87188B69847A848B849C84ED84FE8464
S11322300F85188929813A814B815C8129AB3AAB9E
S11322404BAB5CAB2D803E804F805884E114F1048D
S11322500105110509F01CC126143704480459046A
S113226008F46FC1611471048104910409F4C8C2B3
S113227000E0601600E0700601E0800600E09006D1
S113228008F0ADC21FEF611671048104910411F0CE
S113229008F0DBC520E030E040E050E080E090E072
S11322A06401530104C0D694C794B794A7948A9543
S11322B0D2F7D601C50180509F4FDC018C91280FC5
S11322C0311D411D511DDA01C90120E230E040E019
S11322D050E059016A01A81AB90ACA0ADB0A09F0CE
S11322E047C462015101A618B708C808D908740187
S11322F0002711272D96ECAEFDAE0EAF1FAF2D9724
S1132300940183012070307061960CAF1DAF2EAF25
S11323103FAF619721E030E040E050E029AF3AAFB1
S11323204BAF5CAFC601B5012D962CAD3DAD4EADA6
S11323305FAD2D970E94F0216D962CAF3DAF4EAF4F
S11323405FAF6D9761966CAD7DAD8EAD9FAD6197BE
S11323500E94D1211B012C01C601B5012D962CAD83
S11323603DAD4EAD5FAD2D970E94F021CB01772797
S11323706627A9A8BAA8CBA8DCA8960144275527A4
S11323807B018C01E22AF32A042B152BE214F304BB
S113239004051505F8F46D962CAD3DAD4EAD5FAD5D
S11323A06D9721503040404050406D962CAF3DAF6A
S11323B04EAF5FAF6D97E60CF71C081D191DE614B0
S11323C0F7040805190530F0E214F30404051505B3
S11323D008F4ACC5E218F30804091509C801B701EB
S11323E02D962CAD3DAD4EAD5FAD2D970E94F021E5
S11323F059016A0161966CAD7DAD8EAD9FAD61975B
S11324000E94D1211B012C01C801B7012D962CADCE
S11324103DAD4EAD5FAD2D970E94F021CB017727E6
S1132420662729A93AA94BA95CA940705070262BAC
S1132430372B482B592B2215330544055505A0F499
S11324400894A108B108C108D108260D371D481DFC
S1132450591D261537054805590530F02215330551
S11324604405550508F432C56D966CAC7DAC8EAC54
S11324709FAC6D97D3019927882786017501E82AB7
S1132480F92A0A2B1B2B29AD3AAD4BAD5CAD5DC5CA
S11324902E143F044006510608F499C120E0E216C8
S11324A020E0F20621E0020720E0120708F07EC1D6
S11324B03FEFE316F1040105110511F008F0B7C46C
S11324C020E030E040E050E080E090E05701680117
S11324D004C0D694C794B794A7948A95D2F7D6012A
S11324E0C50180509F4FDC018C91280F311D411D87
S11324F0511DDA01C90120E2A22EB12CC12CD12C2C
S1132500A6019501281B390B4A0B5B0B09F096C1F8
S1132510E214F3040405150550F0A9A8BAA8CBA841
S1132520DCA8A614B704C804D90408F450C181E097
S1132530E82EF12C012D112D20E030E040E050E098
S113254004C530E0631630E0730631E0830630E002
S1132550930608F062C14FEF64167104810491047C
S113256011F008F080C420E030E040E050E080E06A
S113257090E06401530104C0D694C794B794A7941F
S11325808A95D2F7D601C50180509F4FDC018C910A
S1132590280F311D411D511D80E290E0A0E0B0E004
S11325A0821B930BA40BB50BAC01BD01B1F1082E3A
S11325B004C0660C771C881C991C0A94D2F782010B
S11325C07101082E04C0EE0CFF1C001F111F0A9499
S11325D0D2F720E230E0241B350BA9A8BAA8CBA877
S11325E0DCA804C0D694C794B794A7942A95D2F7CC
S11325F0170128012A283B284C285D28C9A8DAA8F5
S1132600EBA8FCA804C0CC0CDD1CEE1CFF1C8A95B6
S1132610D2F7C9AADAAAEBAAFCAA740100271127E7
S11326202196ECAEFDAE0EAF1FAF2197940183014E
S11326302070307025960CAF1DAF2EAF3FAF25979D
S1132640C201B10121962CAD3DAD4EAD5FAD2197D8
S11326500E94F02129962CAF3DAF4EAF5FAF299772
S113266025966CAD7DAD8EAD9FAD25970E94D12191
S11326705B016C01C201B10121962CAD3DAD4EADA3
S11326805FAD21970E94F021CB0177276627E9A847
S1132690FAA80BA91CA99801442755277B018C0192
S11326A0E22AF32A042B152BEA14FB040C051D055E
S11326B0F8F429962CAD3DAD4EAD5FAD2997215070
S11326C030404040504029962CAF3DAF4EAF5FAFF5
S11326D02997E60CF71C081D191DE614F7040805D4
S11326E0190530F0EA14FB040C051D0508F4F4C3C5
S11326F0EA18FB080C091D09C801B70121962CAD85
S11327003DAD4EAD5FAD21970E94F02159016A01A4
S113271025966CAD7DAD8EAD9FAD25970E94D121E0
S11327201B012C01C801B70121962CAD3DAD4EAD66
S11327305FAD21970E94F021CB017727662729A955
S11327403AA94BA95CA940705070262B372B482B13
S1132750592B2215330544055505A0F40894A10806
S1132760B108C108D108260D371D481D591D26156D
S113277037054805590530F022153305440555053C
S113278008F4B9C329966CAC7DAC8EAC9FAC299788
S1132790D3019927882786017501E82AF92A0A2B8B
S11327A01B2B20E030E040E050E0CFC340E0E416D3
S11327B040E0F40640E0040741E0140708F03EC39B
S11327C020E130E040E050E080E190E07FCEEE2474
S11327D0FF24870120E030E040E050E0B6C320E071
S11327E0621620E0720620E0820621E0920608F0DC
S11327F033C320E130E040E050E080E190E050CD90
S113280061E070E080E090E020E030E040E050E003
S11328100E94F02139014A012BCD50E0651650E0A9
S1132820750650E0850651E0950608F023C320E1C3
S113283030E040E050E080E190E09BCE3CA72BA745
S1132840A21AB30AC40AD50AA60195010BA404C0AE
S1132850EE0CFF1C001F111F0A94D2F7D401C30110
S113286004C0B695A79597958795AA94D2F7E82AB8
S1132870F92A0A2B1B2BEDA6FEA60FA718AB0BA457
S113288004C0660C771C881C991C0A94D2F7698EC4
S11328907A8E8B8E9C8E62015101022E04C0D694D6
S11328A0C794B794A7940A94D2F7820171010BA438
S11328B004C0EE0CFF1C001F111F0A94D2F789A953
S11328C09AA9ABA9BCA904C0B695A7959795879575
S11328D02A95D2F7E82AF92A0A2B1B2BEDA2FEA28D
S11328E00FA318A70DA51EA52FA538A979010027A8
S11328F01127A196ECAEFDAE0EAF1FAFA1972DA58B
S11329003EA54FA558A940705070A5962CAF3DAF79
S11329104EAF5FAFA597C601B501A80197010E940C
S1132920F021A9962CAF3DAF4EAF5FAFA997A59606
S11329306CAD7DAD8EAD9FADA5970E94D1213B01BD
S11329404C01C601B501A80197010E94F021CB01F9
S113295077276627ADA0BEA0CFA0D8A496014427B0
S113296055277B018C01E22AF32A042B152BE6144C
S1132970F70408051905F0F4A9962CAD3DAD4EAD4C
S11329805FADA9972150304040405040A9962CAFEC
S11329903DAF4EAF5FAFA9978DA59EA5AFA5B8A9D2
S11329A0E80EF91E0A1F1B1FE816F9060A071B0783
S11329B008F077C2E618F70808091909C801B70131
S11329C0A1962CAD3DAD4EAD5FADA1970E94F02117
S11329D019012A01A5966CAD7DAD8EAD9FADA5976D
S11329E00E94D1213B014C01C801B701A1962CAD35
S11329F03DAD4EAD5FADA1970E94F021CB0177278D
S1132A0066272DA13EA14FA158A5407050705B01CF
S1132A106C01A22AB32AC42AD52AA614B704C8046E
S1132A20D90498F408942108310841085108EDA408
S1132A30FEA40FA518A9AE0CBF1CC01ED11EAE1457
S1132A40BF04C006D10608F01CC2A618B708C808FF
S1132A50D908A9A2BAA2CBA2DCA2A9960CAD1DAD3D
S1132A602EAD3FADA997D80199278827282A392A5E
S1132A704A2A5B2A2DAA3EAA4FAA58AE82017101A6
S1132A802FEF3FEF40E050E0E222F322042315232E
S1132A90120144245524A98CBA8CCB8CDC8CA22240
S1132AA0B322C422D522298D3A8D4B8D5C8D3A01F7
S1132AB088249924C801B701A60195010E94D12157
S1132AC0AD966CAF7DAF8EAF9FAFAD97C801B70128
S1132AD0A40193010E94D1217B018C01C201B101A7
S1132AE0A60195010E94D1215B016C01C201B101D3
S1132AF0A40193010E94D1219B01AC01EA0CFB1CAF
S1132B000C1D1D1DAD966CAC7DAC8EAC9FACAD9711
S1132B10C401AA27BB27E80EF91E0A1F1B1FEA14CB
S1132B20FB040C051D0520F4205030404F4F5F4F2F
S1132B30C801AA27BB27280F391F4A1F5B1F89A07A
S1132B409AA0ABA0BCA082169306A406B50608F40E
S1132B5060C182169306A406B50609F431C1EDA836
S1132B60FEA80FA918AD20E030E040E050E0EDC130
S1132B70BAA6A9A609A404C0660C771C881C991CD3
S1132B800A94D2F72A193B094C095D09DA01C901F3
S1132B908201710104C016950795F794E7942A956C
S1132BA0D2F7A201910109A404C0220F331F441FCC
S1132BB0551F0A94D2F7A9A8BAA8CBA8DCA804C0C8
S1132BC0D694C794B794A7948A95D2F72A293B2917
S1132BD04C295D292D8F3E8F4F8F58A39401442794
S1132BE055272D962CAF3DAF4EAF5FAF2D97D40137
S1132BF0C301A070B07061968CAF9DAFAEAFBFAF94
S1132C006197C801B7010E94F02165962CAF3DAFD2
S1132C104EAF5FAF659761966CAD7DAD8EAD9FADE8
S1132C2061970E94D1215B016C01C801B7012D9607
S1132C302CAD3DAD4EAD5FAD2D970E94F021CB0183
S1132C4077276627ED8CFE8C0F8D18A198014427F9
S1132C5055277B018C01E22AF32A042B152BEA1455
S1132C60FB040C051D05D0F465962CAD3DAD4EADB1
S1132C705FAD6597215030404040504065962CAF81
S1132C803DAF4EAF5FAF6597E60CF71C081D191DED
S1132C90E614F7040805190508F033C1EA18FB081F
S1132CA00C091D09C801B7012D962CAD3DAD4EADE3
S1132CB05FAD2D970E94F02169962CAF3DAF4EAFCA
S1132CC05FAF699761966CAD7DAD8EAD9FAD619739
S1132CD00E94D1211B012C01C801B7012D962CADF6
S1132CE03DAD4EAD5FAD2D970E94F021CB0177270E
S1132CF066272D8D3E8D4F8D58A1407050705B011D
S1132D006C01A22AB32AC42AD52AA214B304C40487
S1132D10D50450F569968CAD9DADAEADBFAD699748
S1132D200197A109B10969968CAF9DAFAEAFBFAF52
S1132D306997A60CB71CC81CD91CA614B704C804F0
S1132D40D90490F0A214B304C404D50468F4019720
S1132D50A109B10969968CAF9DAFAEAFBFAF6997BA
S1132D60A60CB71CC81CD91CE9A8FAA80BA91CA955
S1132D7009A404C0EE0CFF1C001F111F0A94D2F713
S1132D80E9AAFAAA0BAB1CABA218B308C408D5086D
S1132D9065960CAD1DAD2EAD3FAD6597D801992755
S1132DA0882769962CAD3DAD4EAD5FAD6997282B54
S1132DB0392B4A2B5B2B29AF3AAF4BAF5CAFB2CA6E
S1132DC089A99AA9ABA9BCA90BA404C0880F991F0F
S1132DD0AA1FBB1F0A94D2F7A70133272227AD9657
S1132DE0ECACFDAC0EAD1FADAD976FEFA62E6FEF43
S1132DF0B62EC12CD12CEA20FB200C211D212E0D36
S1132E003F1D401F511F82179307A407B50708F001
S1132E10A6CEEDA8FEA80FA918AD0894E108F10804
S1132E200109110920E030E040E050E08EC028E0C4
S1132E3030E040E050E088E090E048CB28E130E02A
S1132E4040E050E088E190E041CB28E030E040E011
S1132E5050E088E090E024CA28E130E040E050E00F
S1132E6088E190E01DCA28E030E040E050E088E0CE
S1132E7090E07FCB28E130E040E050E088E190E052
S1132E8078CBA614B704C804D90408F0DECD08949E
S1132E902108310841085108AE0CBF1CC01ED11EC8
S1132EA0D4CDE614F7040805190508F083CD2150A4
S1132EB0304040405040A9962CAF3DAF4EAF5FAF7D
S1132EC0A997E80EF91E0A1F1B1F74CD0894A108C8
S1132ED0B108C108D108C8CA215030404040504010
S1132EE029962CAF3DAF4EAF5FAF2997E60CF71C88
S1132EF0081D191DFDCB0894A108B108C108D1080B
S1132F0041CCEA14FB040C051D0508F0C7CE215082
S1132F1030404040504065962CAF3DAF4EAF5FAF60
S1132F206597E60CF71C081D191DB8CE21503040DA
S1132F30404050406D962CAF3DAF4EAF5FAF6D97A4
S1132F40E60CF71C081D191D45CA88E0FE017196A0
S1132F5011928A95E9F7E98AFA8A0B8B1C8B2D8BDF
S1132F603E8B4F8B588F29883A884B885C886D88B4
S1132F707E888F88988C222D332D442D552D662DD7
S1132F80772D882D992DE2E1C459DF4F0C942E2220
S1132F90AEE4B0E0EEECF7E10C941222222E332ED4
S1132FA0442E552E662E772E882E992E2A2DA8E093
S1132FB0FE013196AA2E1192AA94E9F729823A8247
S1132FC04B825C826D827E828F829886FE01399666
S1132FD01192AA95E9F72987BA86CB86DC86ED8615
S1132FE0FE860F87188B69847A848B849C84ED8495
S1132FF0FE840F85188929813A814B815C8129A33C
S11330003AA34BA35CA32D803E804F805884E114E7
S1133010F1040105110509F0ADC026143704480474
S1133020590408F40FC1611471048104910409F472
S1133030F5C100E0601600E0700601E0800600E0E3
S1133040900608F0DAC11FEF61167104810491043F
S113305011F008F06CC520E030E040E050E080E082
S113306090E06401530104C0D694C794B794A79424
S11330708A95D2F7D601C50180509F4FDC018C910F
S1133080280F311D411D511DDA01C90120E230E034
S113309040E050E059016A01A81AB90ACA0ADB0AD9
S11330A009F012C282017101E618F708080919092A
S11330B0140144245524A4019301407050702396B4
S11330C02CAF3DAF4EAF5FAF23971EA61DA6C80120
S11330D0B701A20191010E94F02123966CAD7DAD50
S11330E08EAD9FAD23970E94D1215B016C01C80175
S11330F0B701A20191010E94F021CB017727662735
S1133100E9A0FAA00BA11CA19801442755277B0133
S11331108C01E22AF32A042B152BEA14FB040C0578
S11331201D0578F4E60CF71C081D191DE614F704B8
S11331300805190530F0EA14FB040C051D0508F414
S113314023C5EA18FB080C091D09C801B701A2012F
S113315091010E94F02123966CAD7DAD8EAD9FADA3
S113316023970E94D1215B016C01C801B701A20120
S1133170910106C12E143F044006510668F409A1CA
S11331801AA12BA13CA1098B1A8B2B8B3C8B2D8A6A
S11331903E8A4F8A588E41C520E0E21620E0F206AE
S11331A021E0020720E0120708F056C13FEFE316C2
S11331B0F1040105110511F008F0C0C420E030E06D
S11331C040E050E080E090E05701680104C0D694EC
S11331D0C794B794A7948A95D2F7D601C5018050B5
S11331E09F4FDC018C91280F311D411D511DDA01C7
S11331F0C90120E230E040E050E059016A01A81A18
S1133200B90ACA0ADB0A09F02CC2E214F304040561
S1133210150508F432C129A13AA14BA15CA12615D8
S113322037054805590508F028C1C9A0DAA0EBA064
S1133230FCA0C98ADA8AEB8AFC8A2D8A3E8A4F8AE4
S1133240588EEBC430E0631630E0730631E0830639
S113325030E0930608F0EFC04FEF64167104810468
S1133260910411F008F071C420E030E040E050E037
S113327080E090E06401530104C0D694C794B794ED
S1133280A7948A95D2F7D601C50180509F4FDC01DF
S11332908C91280F311D411D511D80E290E0A0E06A
S11332A0B0E05C016D01A21AB30AC40AD50A09F0A0
S11332B089C31EA61DA6740100271127EFAAF8AE24
S11332C009AF1AAF94018301207030700BAF1CAFAB
S11332D02DAF3EAFC201B1012FA938AD49AD5AADF2
S11332E00E94F0216BAD7CAD8DAD9EAD0E94D121CD
S11332F05B016C01C201B1012FA938AD49AD5AADD2
S11333000E94F021CB0177276627E9A0FAA00BA140
S11333101CA19801442755277B018C01E22AF32A3A
S1133320042B152BEA14FB040C051D0578F4E60C9C
S1133330F71C081D191DE614F7040805190530F0DB
S1133340EA14FB040C051D0508F423C4EA18FB0861
S11333500C091D09C801B7012FA938AD49AD5AADF3
S11333600E94F0216BAD7CAD8DAD9EAD0E94D1214C
S11333705B016C01C801B7012FA938AD49AD5AAD45
S11333800E94F021CB017727662729A13AA14BA1FE
S11333905CA140705070262B372B482B592B2A15D3
S11333A03B054C055D0590F4260D371D481D591D40
S11333B0261537054805590548F02A153B054C05DF
S11333C05D0520F4260D371D481D591D2A193B099A
S11333D04C095D09DA01C9010DA404C0B695A7958D
S11333E0979587950A94D2F7898B9A8BAB8BBC8B74
S11333F01D8A1E8A1F8A188E10C420E0621620E0DF
S1133400720620E0820621E0920608F089C320E1DA
S113341030E040E050E080E190E023CE61E070E0F5
S113342080E090E020E030E040E050E00E94F021B5
S113343039014A01FECD50E0651650E0750650E0B2
S1133440850651E0950608F087C320E130E040E0AE
S113345050E080E190E00ECF40E0E41640E0F40656
S113346040E0040741E0140708F07DC320E130E0A8
S113347040E050E080E190E0A7CE29A13AA14BA121
S11334805CA126193709480959092E183F08400A32
S1133490510A8201710160E070E080E090E0A9A02F
S11334A0BAA0CBA0DCA0A216B306C406D50608F4C5
S11334B061C317012801261A370A480A590A29A3A1
S11334C03AA34BA35CA3B1CEBEA6ADA60DA404C083
S11334D0660C771C881C991C0A94D2F72A193B099C
S11334E04C095D09DA01C9018201710104C0169514
S11334F00795F794E7942A95D2F7A20191010DA4B8
S113350004C0220F331F441F551F0A94D2F7A9A0E9
S1133510BAA0CBA0DCA004C0D694C794B794A79457
S11335208A95D2F72A293B294C295D292DA33EA34C
S11335304FA358A7140144245524A40193014070B7
S1133540507023962CAF3DAF4EAF5FAF2397C801A9
S1133550B701A20191010E94F02123966CAD7DADCB
S11335608EAD9FAD23970E94D1215B016C01C801F0
S1133570B701A20191010E94F021CB0177276627B0
S1133580EDA0FEA00FA118A59801442755277B01A3
S11335908C01E22AF32A042B152BEA14FB040C05F4
S11335A01D0550F4E60CF71C081D191DE614F7045C
S11335B00805190508F017C3EA18FB080C091D09CA
S11335C0C801B701A20191010E94F02123966CADBC
S11335D07DAD8EAD9FAD23970E94D1215B016C011F
S11335E0C801B701A20191010E94F021CB01772704
S11335F066272DA13EA14FA158A5407050707B01B4
S11336008C01E22AF32A042B152BEA14FB040C0583
S11336101D0590F4E60CF71C081D191DE614F704AB
S11336200805190548F0EA14FB040C051D0520F4EF
S1133630E60CF71C081D191D29A13AA14BA15CA198
S11336400DA404C0220F331F441F551F0A94D2F740
S113365029A33AA34BA35CA3EA18FB080C091D0990
S113366036CDB8AAAFA62A193B094C095D093AAB75
S113367029ABA80197010FA404C0220F331F441FD4
S1133680551F0A94D2F7D401C30109A804C0B69502
S1133690A795979587950A94D2F7282B392B4A2B0F
S11336A05B2B2BAB3CAB4DAB5EAB0FA404C0660CE9
S11336B0771C881C991C0A94D2F7698E7A8E8B8E9B
S11336C09C8E8201710109A804C016950795F79490
S11336D0E7940A94D2F7A20191010FA404C0220F27
S11336E0331F441F551F0A94D2F789A19AA1ABA195
S11336F0BCA109A804C0B695A795979587950A9487
S1133700D2F7282B392B4A2B5B2B29A73AA74BA797
S11337105CA729A13AA14BA15CA10FA404C0220F6C
S1133720331F441F551F0A94D2F72D8F3E8F4F8F9E
S113373058A38BA99CA9ADA9BEA91D014424552455
S11337403C014D014FEFA42E4FEFB42EC12CD12CD0
S11337506A207B208C209D20C801B701A201910121
S11337600E94F0212B962CAF3DAF4EAF5FAF2B974D
S1133770C401B3010E94D1215B016C01C801B701EE
S1133780A20191010E94F021CB0177276627E9A4C9
S1133790FAA40BA51CA59801442755277B018C018D
S11337A0E22AF32A042B152BEA14FB040C051D054D
S11337B0F0F42B962CAD3DAD4EAD5FAD2B97215063
S11337C03040404050402B962CAF3DAF4EAF5FAFE2
S11337D02B978BA99CA9ADA9BEA9E80EF91E0A1FB7
S11337E01B1FE816F9060A071B0708F0E7C1EA18C9
S11337F0FB080C091D09C801B701A20191010E942F
S1133800F02159016A01C401B3010E94D1213B0195
S11338104C01C801B701A20191010E94F021CB0122
S11338207727662729A53AA54BA55CA5407050705B
S11338307B018C01E22AF32A042B152BE614F704EE
S11338400805190598F40894A108B108C108D1081D
S11338502BA93CA94DA95EA9E20EF31E041F151F56
S1133860E216F3060407150708F098C1E618F708EE
S1133870080919092796ECAEFDAE0EAF1FAF2797C6
S11338802B96ECACFDAC0EAD1FAD2B97D701992751
S11338908827A82AB92ACA2ADB2AFFEFEF2EFFEFCE
S11338A0FF2E012D112DEA20FB200C211D21560194
S11338B0CC24DD24698C7A8C8B8C9C8C2FEF3FEF8D
S11338C040E050E06222732284229522898D9A8DF1
S11338D0AB8DBC8D1D0144245524C801B701A4013E
S11338E093010E94D1212F966CAF7DAF8EAF9FAF15
S11338F02F97C801B701A20191010E94D1217B0138
S11339008C01C601B501A40193010E94D1213B01A0
S11339104C01C601B501A20191010E94D1215B01B4
S11339206C01E60CF71C081D191D2F962CAD3DAD3E
S11339304EAD5FAD2F97CA01AA27BB279C01AD01ED
S11339402E0D3F1D401F511F2615370548055905EB
S113395040F480E090E0A1E0B0E0A80EB91ECA1ED9
S1133960DB1ECA01AA27BB2786017501E80EF91ED2
S11339700A1F1B1FA901332722272F968CAD9DAD4B
S1133980AEADBFAD2F97A070B070280F391F4A1F7E
S11339905B1F2796ACACBDACCEACDFAC2797AE14A6
S11339A0BF04C006D10608F447C0AE14BF04C00665
S11339B0D10609F423C1C601B5016E197F09800B34
S11339C0910B68C0BEA6ADA60DA404C0660C771CFE
S11339D0881C991C0A94D2F7A20191010DA404C079
S11339E0220F331F441F551F0A94D2F780E290E040
S11339F08A199B09A9A0BAA0CBA0DCA004C0D694C4
S1133A00C794B794A7948A95D2F719012A012A2852
S1133A103B284C285D28C9A0DAA0EBA0FCA00DA48B
S1133A2004C0CC0CDD1CEE1CFF1C0A94D2F7C9A206
S1133A30DAA2EBA2FCA23FCC19012A01A98CBA8C10
S1133A40CB8CDC8C2A183B084C085D088BA99CA9FC
S1133A50ADA9BEA9E81AF90A0A0B1B0B60E070E0D5
S1133A6080E090E0221533054405550508F487C02D
S1133A70E61AF70A080B190B2796ACACBDACCEAC12
S1133A80DFAC2797AE18BF08C00AD10AC601B5013A
S1133A90A2019101ED8CFE8C0F8D18A1E21AF30A9C
S1133AA0040B150B20E030E040E050E0AD8CBE8C00
S1133AB0CF8CD8A0AE14BF04C006D10620F421E0F8
S1133AC030E040E050E0DC01CB01821B930BA40BFF
S1133AD0B50B9C01AD0109A804C0220F331F441F7C
S1133AE0551F0A94D2F70FA404C016950795F794AE
S1133AF0E7940A94D2F72E293F29402B512B298B86
S1133B003A8B4B8B5C8B0FA404C0B695A795979505
S1133B1087950A94D2F78D8B9E8BAF8BB88F7DC01F
S1133B2028E130E040E050E088E190E09ACA28E0E3
S1133B3030E040E050E088E090E093CA28E030E0D4
S1133B4040E050E088E090E03FCB28E030E040E007
S1133B5050E088E090E08ECB28E130E040E050E097
S1133B6088E190E087CB28E130E040E050E088E154
S1133B7090E02ACB61E070E080E090E09ACC61E0D4
S1133B8070E080E090E074CFE60CF71C081D191D6E
S1133B90D8CAE60CF71C081D191DD8CBE614F70487
S1133BA00805190508F062CE0894A108B108C108F7
S1133BB0D108E20EF31E041F151F58CEEA14FB04AD
S1133BC00C051D0508F013CE2150304040405040F4
S1133BD02B962CAF3DAF4EAF5FAF2B97E80EF91E7F
S1133BE00A1F1B1F04CEEA14FB040C051D0508F074
S1133BF0E3CCE60CF71C081D191DDECC8D8D9E8DC3
S1133C00AF8DB8A182179307A407B50708F414CFA2
S1133C1060E070E080E090E03DCF29883A884B88EE
S1133C205C886D887E888F88988C222D332D442D56
S1133C30552D662D772D882D992DE2E1C25BDF4F3E
S1133C400C942E225058BB27AA270ED003C1F4D0BF
S1133C5030F0F9D020F031F49F3F11F41EF4D9C0B4
S1133C600EF4E095E7FBCFC0E92F05D180F3BA1736
S1133C70620773078407950718F071F49EF51DC158
S1133C800EF4E0950B2EBA2FA02D0B01B901900173
S1133C900C01CA01A0011124FF27591B99F0593FB7
S1133CA050F4503E68F11A16F040A22F232F342FFF
S1133CB04427585FF3CF469537952795A795F0404D
S1133CC05395C9F77EF41F16BA0B620B730B840B62
S1133CD0BAF09150A1F0FF0FBB1F661F771F881F1A
S1133CE0C2F70EC0BA0F621F731F841F48F4879572
S1133CF077956795B795F7959E3F08F0B3CF939561
S1133D00880F08F09927EE0F979587950895BEE3DD
S1133D1004D008F490E80895BFE322273327A901CB
S1133D20B2D058F19F5740F1B91738F1BFE3B91B2E
S1133D309927B8503AF4660F771F881F991FB395D7
S1133D40D2F316C0B8504AF0232F342F452F562FE4
S1133D50672F782F8827B850BAF7B85F49F086954F
S1133D60779567955795479537952795BA95B9F7F8
S1133D700EF452D088940895889460E070E0CB01EA
S1133D80089597FB0EF448D001C0E894F92F96EB00
S1133D90FF2381F0121613061406440B9395F6952F
S1133DA087957795679557954040FF23B9F71BC0D2
S1133DB099270895882351F49850D2F7872B762FAA
S1133DC0652F542F432F322F20E0B1F31216130620
S1133DD01406440B88233AF09A95440F551F661F26
S1133DE0771F881FCAF755234AF4440F551F11F44F
S1133DF060FF04C06F5F7F4F8F4F9F4F880F969572
S1133E00879597F9089597F99F6780E870E060E0D7
S1133E1008959FEF80EC0895909580957095609536
S1133E2050954095309521953F4F4F4F5F4F6F4FC1
S1133E307F4F8F4F9F4F089500240A94161617063C
S1133E4018060906089500240A9412161306140687
S1133E5005060895092E0394000C11F4882352F0EA
S1133E60BB0F40F4BF2B11F460FF04C06F5F7F4FA2
S1133E708F4F9F4F089557FD9058440F551F59F089
S1133E805F3F71F04795880F97FB991F61F09F3F43
S1133E9079F087950895121613061406551FF2CF6C
S1133EA04695F1DF08C0161617061806991FF1CFBC
S1133EB086957105610508940895E894BB276627E3
S1133EC07727CB0197F908950BD0C4CFB5DF28F03D
S1133ED0BADF18F0952309F096CF9BCF1124EECFCB
S1133EE0CADFA0F3959FD1F3950F50E0551F629F51
S1133EF0F001729FBB27F00DB11D639FAA27F00D3F
S1133F00B11DAA1F649F6627B00DA11D661F829F65
S1133F102227B00DA11D621F739FB00DA11D621F4A
S1133F20839FA00D611D221F749F3327A00D611D67
S1133F30231F849F600D211D822F762F6A2F112449
S1133F409F5750408AF0E1F088234AF0EE0FFF1F9C
S1133F50BB1F661F771F881F91505040A9F79E3FD3
S1133F60510570F050CFAACF5F3FECF3983EDCF3DD
S1133F70869577956795B795F795E7959F5FC1F710
S1133F80FE2B880F911D9695879597F90895FA0150
S1133F90EE0FFF1F30962105310599F1611571056A
S1133FA061F48038BFE39B0749F168949038810538
S1133FB061F08038BFEF9B0741F0992342F5FF3F42
S1133FC0E1053105210511F1E8940894E795D9013B
S1133FD0AA2329F4AB2FBE2FF85FD0F310C0FF5FE4
S1133FE070F4A695E0F7F73950F019F0FF3A38F479
S1133FF09F779F930CD00F9007FC905808953EF044
S113400008CF60E070E080E89FE308954FE79F7772
S11340105F934F933F932F939ED02F913F914F9156
S11340205F9152DF05C019F40EF0EDCE46CFF1CE0C
S11340302ADFC8F39638C0F707F80F92E8942BE309
S11340403AEA48EB5FE74EDF0F920F920F924DB7BB
S11340505EB70F92C0D0ECE8F0E016D04F915F91BC
S1134060EF91FF91E595EE1FFF1F49F0FE57E068C1
S11340704427EE0F441FFA95E1F74195550B32D0D2
S11340800F9007FE26C00895DF93CF931F930F93DD
S1134090FF92EF92DF927B018C01689405C0DA2EC7
S11340A0EF011EDFFE01E894A5912591359145911C
S11340B05591AEF3EF01D8DDFE019701A801DA9422
S11340C079F7DF90EF90FF900F911F91CF91DF91DF
S11340D008959B01AC0160E070E080E89FE3AEC00E
S11340E092CE51C1D0DEE8F39923D9F3940F511D38
S11340F0BBF39150504094F059F0882332F0660F8E
S1134100771F881F91505040C1F79E3F510544F7D7
S1134110880F911D9695879597F908955F3FACF0A8
S1134120983E9CF0BB27869577956795B79508F4DC
S1134130B1609395C1F7BB0F58F711F460FFE8CF56
S11341406F5F7F4F8F4F9F4FE3CFB8CE0EF01BC1F1
S113415060CE689458CE97DEC8F39923D1F3C6F3A2
S1134160DF93CF931F930F93FF92C92FDD278823EB
S11341702AF02197660F771F881FDAF720E030E0D6
S113418040E85FEB9FE3883920F0803E30F02196D1
S11341908F7759DDE4EBF0E003C055DDE1EEF0E0AC
S11341A073DF8B01BE01EC01FB2E6F57710975950E
S11341B0771F880B990BACD028E132E741E35FE32A
S11341C08FDEAF2D9801AE01FF900F911F91CF911B
S11341D0DF914ADD3FCEFA01DC01AA0FBB1F9B0130
S11341E0AC01BF5728F422273327442750781FC037
S11341F0B75188F4AB2F0024469537952795011CB9
S1134200A395D2F3002069F0220F331F441FB39506
S1134210DAF30DD017CD61307105A0E88A07B946ED
S113422030F49B01AC016627772788279078309675
S113423021F0208331834283538308950CD00ACE26
S113424002DE40F0F9DD30F021F45F3F19F0DBCD00
S1134250511134CEDECD0FDE98F39923C9F35523E3
S1134260B1F3951B550BBB27AA2762177307840765
S113427038F09F5F5F4F220F331F441FAA1FA9F31B
S113428033D00E2E3AF0E0E830D091505040E6950D
S1134290001CCAF729D0FE2F27D0660F771F881F6E
S11342A0BB1F261737074807AB07B0E809F0BB0B5D
S11342B0802DBF01FF2793585F4F2AF09E3F510581
S11342C068F0A1CDFBCD5F3FECF3983EDCF386951F
S11342D077956795B795F7959F5FC9F7880F911DF7
S11342E09695879597F90895E1E0660F771F881FE3
S11342F0BB1F621773078407BA0720F0621B730B96
S1134300840BBA0BEE1F88F7E0950895E89409C072
S113431097FB3EF490958095709561957F4F8F4FF4
S11343209F4F9923A9F0F92F96E9BB279395F6950A
S1134330879577956795B795F111F8CFFAF4BB0F88
S113434011F460FF1BC06F5F7F4F8F4F9F4F16C0EC
S1134350882311F096E911C0772321F09EE8872F76
S1134360762F05C0662371F096E8862F70E060E032
S11343702AF09A95660F771F881FDAF7880F9695AB
S1134380879597F908959F3F31F0915020F48795D0
S113439077956795B795880F911D9695879597F9A9
S11343A00895629FD001739FF001829FE00DF11D7B
S11343B0649FE00DF11D929FF00D839FF00D749F9B
S11343C0F00D659FF00D9927729FB00DE11DF91F47
S11343D0639FB00DE11DF91FBD01CF0111240895A4
S11343E0A1E21A2EAA1BBB1BFD010DC0AA1FBB1FF5
S11343F0EE1FFF1FA217B307E407F50720F0A21B67
S1134400B30BE40BF50B661F771F881F991F1A94D3
S113441069F760957095809590959B01AC01BD01FD
S1134420CF0108952F923F924F925F926F927F92A5
S11344308F929F92AF92BF92CF92DF92EF92FF92B0
S11344400F931F93CF93DF93CDB7DEB7CA1BDB0B5C
S11344500FB6F894DEBF0FBECDBF09942A88398801
S113446048885F846E847D848C849B84AA84B98408
S1134470C884DF80EE80FD800C811B81AA81B98114
S1134480CE0FD11D0FB6F894DEBF0FBECDBFED0128
S11344900895CF93DF93AC01029710F442E050E00B
S11344A0A0910C02B0910D02FD01C0E0D0E020E02B
S11344B030E020C0808191818417950769F482815E
S11344C09381209719F09B838A8304C090930D02F3
S11344D080930C02CF0132C04817590738F42115D4
S11344E0310519F08217930708F49C01EF0102804B
S11344F0F381E02D3097F1F62115310589F1C901D9
S1134500841B950B049708F4A901E0E0F0E026C0B1
S11345108D919C91119782179307E9F448175907D5
S113452079F4ED018A819B81309719F0938382831A
S113453004C090930D0280930C02CD0102964CC0EE
S1134540841B950BFD01E80FF91F419351930297CA
S11345508D939C933DC0FD01A281B3811097C1F658
S113456080910A0290910B02892B41F480910202FE
S11345709091030290930B0280930A02209104020B
S1134580309105022115310541F42DB73EB78091D4
S1134590000290910102281B390BE0910A02F0916C
S11345A00B02E217F307B0F42E1B3F0B2417350759
S11345B088F0CA0102962817390760F0CF01840FEA
S11345C0951F029690930B0280930A024193519394
S11345D0CF0102C080E090E0DF91CF910895CF93A6
S11345E0DF93009709F44EC0EC0122971B821A82D4
S11345F0A0910C02B0910D02109711F140E050E02F
S113460001C0DC01AC17BD0700F1BB83AA83FE0126
S113461021913191E20FF31FEA17FB0771F42E5F2A
S11346203F4F8D919C911197820F931F998388839B
S1134630FD01828193819B838A834115510559F43D
S1134640D0930D02C0930C021DC0FD0182819381A1
S1134650AD010097B1F6FA01D383C2832191319160
S1134660E20FF31FEC17FD0769F42E5F3F4F8881BB
S11346709981820F931FFA01918380838A819B81A0
S10F468093838283DF91CF910895FFCFD4
S113468C00010202030303030404040404040404E9
S113469C05050505050505050505050505050505BA
S11346AC060606060606060606060606060606069A
S11346BC060606060606060606060606060606068A
S11346CC070707070707070707070707070707076A
S11346DC070707070707070707070707070707075A
S11346EC070707070707070707070707070707074A
S11346FC070707070707070707070707070707073A
S113470C0808080808080808080808080808080819
S113471C0808080808080808080808080808080809
S113472C08080808080808080808080808080808F9
S113473C08080808080808080808080808080808E9
S113474C08080808080808080808080808080808D9
S113475C08080808080808080808080808080808C9
S113476C08080808080808080808080808080808B9
S113477C08080808080808080808080808080808A9
S109478C20000E020000F3
S9030000FC
