S01800006275696C642F6D6963617A2F6D61696E2E73726563E5
S11300000C948A000C94A9000C94A9000C94A900E7
S11300100C94A9000C94A9000C94A9000C94A900B8
S11300200C94A9000C94A9000C94A9000C94A900A8
S11300300C94A9000C94A9000C94A9000C94A90098
S11300400C94A9000C94A9000C94A9000C94A90088
S11300500C94A9000C94A9000C94A9000C94A90078
S11300600C94A9000C94A9000C94A9000C94A90068
S11300700C94A9000C94A9000C94A9000C94A90058
S11300800C94A9000C94A9000C94A90007634236AF
S1130090B79BD8A71A39685618AEBAAB558C1D3C15
S11300A0B7CC5763BD6DEDFD753EF6177231BF00D9
S11300B00000803F08000000BE922449123EABAA13
S11300C0AA2ABECDCCCC4C3E00000080BEABAAAA6E
S11300D0AA3E00000000BF000000803F00000000B6
S11300E000084178D3BB4387D1133D190E3CC3BDEF
S11300F04282AD2B3E68EC8276BED98FE1A93E4C9C
S113010080EFFFBE01C4FF7F3F0000000000000835
S11301101C18141011241FBECFEFD0E1DEBFCDBFD9
S113012011E0A0E0B1E0E8E6FEE000E00BBF02C0B1
S113013007900D92AC30B107D9F711E0ACE0B1E013
S113014001C01D92A831B107E1F70E9499020C94F5
S113015033070C9400008FB7F894992708958FBF44
S11301600895809114018F3F19F480E090E0089580
S1130170282F3327F901E45FFE4F80818093140117
S11301808F3F11F4809317018FEF808390E02F3F0E
S113019009F491E081E09827892F992708952F92F7
S11301A03F924F925F926F927F928F929F92AF9203
S11301B0BF92CF92DF92EF92FF920F931F93CF9350
S11301C0DF93CDB7DEB728970FB6F894DEBF0FBE26
S11301D0CDBF3B014C0119012A01E982FA820B834C
S11301E01C83AD82BE82CF82D886C801B70161501C
S11301F0704080409040A60195012150304040401D
S113020050400E94F20623E030E040E050E00E94BB
S1130210110757FD05C0CA01B9010E94360414C074
S1130220CA01B901617070708070907056954795DD
S113023037952795622B732B842B952B0E943604BC
S11302409B01AC010E94A4035B016C0197FC05C0F7
S1130250C401B3010E94360414C0C401B301617027
S113026070708070907096948794779467946629E0
S11302707729882999290E9436049B01AC010E94A0
S1130280A4037B018C0157FC05C0C201B1010E948B
S1130290360414C0C201B101617070708070907036
S11302A0569447943794279462297329842995296D
S11302B00E9436049B01AC010E94A403A80197018B
S11302C00E94C2040E9408047B018C012091080151
S11302D03091090140910A0150910B0157FD05C06D
S11302E0CA01B9010E94360414C0CA01B90161707F
S11302F07070807090705695479537952795622B4E
S1130300732B842B952B0E9436049B01AC010E9415
S1130310A40320E030E040E450E40E94C2040E94C0
S113032008049B01AC01C801B7010E94F2069B01BD
S1130330AC0197FD03C00E94360412C06170707056
S1130340807090705695479537952795622B732B3F
S1130350842B952B0E9436049B01AC010E94A403BC
S1130360A60195010E94C2040E9408047B018C012D
S113037069817A818B819C812D813E814F81588551
S11303800E94F2069B01AC01C801B7010E9411074B
S113039028960FB6F894DEBF0FBECDBFDF91CF9184
S11303A01F910F91FF90EF90DF90CF90BF90AF908F
S11303B09F908F907F906F905F904F903F902F9081
S11303C008952F923F924F925F926F927F928F92F5
S11303D09F92AF92BF92CF92DF92EF92FF920F93D0
S11303E01F93CF93DF93CDB7DEB724970FB6F8945E
S11303F0DEBF0FBECDBF3B014C0119012A01E982CA
S1130400FA820B831C8397FD03C00E94360412C03A
S113041061707070807090709694879477946794EC
S113042066297729882999290E9436049B01AC0101
S11304300E94A4037B018C0157FC05C0C201B101D9
S11304400E94360414C0C201B101617070708070E2
S11304509070569447943794279462297329842979
S113046095290E9436049B01AC010E94A403A801B3
S113047097010E94C2040E9408047B018C01209110
S113048008013091090140910A0150910B0157FD77
S113049005C0CA01B9010E94360414C0CA01B901D9
S11304A06170707080709070569547953795279558
S11304B0622B732B842B952B0E9436049B01AC0179
S11304C00E94A40320E030E040E450E40E94C2040F
S11304D00E9408049B01AC01C801B7010E94F20606
S11304E07B018C0169817A818B819C81A6019501B4
S11304F00E94F2069B01AC01C801B7010E941107DA
S113050024960FB6F894DEBF0FBECDBFDF91CF9116
S11305101F910F91FF90EF90DF90CF90BF90AF901D
S11305209F908F907F906F905F904F903F902F900F
S11305300895AF92BF92CF92DF92EF92FF920F9302
S11305401F931FB7F8948FEF8093140180931701C2
S113055081E08EBD88E080BF83E083BF8CB59DB50C
S11305604AE72CB53DB52817390708F44150442310
S113057011F0C901F6CF92B782B78917E9F32CB508
S11305803DB592B782B78917E9F38CB59DB5821B47
S1130590930B409605E0969587950A95E1F790931D
S11305A016018093150113BE83B78EBD8EB580BF2F
S11305B012BE1DBC1CBC8FEF86BF86B780937C0027
S11305C080B7992787709070892BD1F715BA8FEF70
S11305D084BBD498DC9880E285BF0E94B100882354
S11305E0E1F70E94B1008823E1F7812F99278FBF9B
S11305F078946091000170910101809102019091C1
S1130600030120910C0130910D0140910E01509194
S11306100F015F934F933F932F9315E0A12EB12CBD
S1130620C12CD12CB7E0EB2EF12C012D112D22E0A1
S113063030E040E050E00E94E101609104017091DB
S113064005018091060190910701209110013091DC
S1130650110140911201509113015F934F933F9305
S11306602F9322E030E040E050E00E94E1011F932C
S11306700F93FF92EF9222E030E040E050E06DE013
S113068070E080E090E00E94CF001F930F93FF92F0
S1130690EF9222E030E040E050E063E070E080E080
S11306A090E00E94CF008DB79EB740960FB6F894A5
S11306B09EBF0FBE8DBF8FB7F894482F55272CC00F
S11306C087B7887BC1F480917D008B7FA1F46E99FC
S11306D012C08AB190919A00892B807C61F4809138
S11306E0740082FD08C0379B03C0E1E0F0E005C060
S11306F0E5E0F0E002C0E0E0F0E085B7E63008F0C5
S1130700E5E0FF27E25FFE4FE491837E8062E82B01
S1130710E5BF78948895F894809114018F3F81F215
S1130720282F3327F901E45FFE4F80818093140161
S11307308F3F11F4809317018FEF80832F3F09F4CB
S1130740BFCF4FBFB8CF5058BB27AA270ED0E0C0A9
S1130750D1D030F0D6D020F031F49F3F11F41EF404
S1130760C6C00EF4E095E7FBBCC0E92FE2D080F3ED
S1130770BA17620773078407950718F071F49EF59A
S1130780FAC00EF4E0950B2EBA2FA02D0B01B9017F
S113079090010C01CA01A0011124FF27591B99F0F3
S11307A0593F50F4503E68F11A16F040A22F232FFF
S11307B0342F4427585FF3CF469537952795A7954F
S11307C0F0405395C9F77EF41F16BA0B620B730BF6
S11307D0840BBAF09150A1F0FF0FBB1F661F771F67
S11307E0881FC2F70EC0BA0F621F731F841F48F41C
S11307F0879577956795B795F7959E3F08F0B3CFA2
S11308009395880F08F09927EE0F9795879508958B
S113081098D088F09F5790F0B92F9927B751A0F03E
S1130820D1F0660F771F881F991F1AF0BA95C9F780
S113083012C0B13081F09FD0B1E008959CC0672F01
S1130840782F8827B85F39F0B93FCCF38695779530
S11308506795B395D9F73EF4909580957095619519
S11308607F4F8F4F9F4F0895E89409C097FB3EF444
S113087090958095709561957F4F8F4F9F4F9923E9
S1130880A9F0F92F96E9BB279395F6958795779567
S11308906795B795F111F8CFFAF4BB0F11F460FF27
S11308A01BC06F5F7F4F8F4F9F4F16C0882311F07F
S11308B096E911C0772321F09EE8872F762F05C093
S11308C0662371F096E8862F70E060E02AF09A952E
S11308D0660F771F881FDAF7880F9695879597F923
S11308E0089597F99F6780E870E060E008959FEFAE
S11308F080EC089500240A941616170618060906B3
S1130900089500240A941216130614060506089581
S1130910092E0394000C11F4882352F0BB0F40F409
S1130920BF2B11F460FF04C06F5F7F4F8F4F9F4F49
S1130930089557FD9058440F551F59F05F3F71F0CB
S11309404795880F97FB991F61F09F3F79F0879532
S11309500895121613061406551FF2CF4695F1DFBB
S113096008C0161617061806991FF1CF869571054B
S1130970610508940895E894BB2766277727CB017F
S113098097F90895FA01EE0FFF1F309621053105FE
S113099099F16115710561F48038BFE39B0749F152
S11309A068949038810561F08038BFEF9B0741F06F
S11309B0992342F5FF3FE1053105210511F1E89442
S11309C00894E795D901AA2329F4AB2FBE2FF85F29
S11309D0D0F310C0FF5F70F4A695E0F7F73950F03C
S11309E019F0FF3A38F49F779F930CD00F9007FCCF
S11309F0905808953EF07BCF60E070E080E89FE37C
S1130A0008954FE79F775F934F933F932F939ED023
S1130A102F913F914F915F910CD105C019F40EF0C5
S1130A2060CFA9CF64CF8DDFC8F39638C0F707F83D
S1130A300F92E8942BE33AEA48EB5FE708D10F9270
S1130A400F920F924DB75EB70F92C0D0ECE8F0E072
S1130A5016D04F915F91EF91FF91E595EE1FFF1F27
S1130A6049F0FE57E0684427EE0F441FFA95E1F77A
S1130A704195550B32D00F9007FE26C00895DF93A1
S1130A80CF931F930F93FF92EF92DF927B018C0120
S1130A90689405C0DA2EEF01D8D0FE01E894A59140
S1130AA02591359145915591AEF3EF015EDEFE013E
S1130AB09701A801DA9479F7DF90EF90FF900F91F6
S1130AC01F91CF91DF9108959B01AC0160E070E02C
S1130AD080E89FE311C105CF77C133DFE8F39923A1
S1130AE0D9F3940F511DBBF39150504094F059F039
S1130AF0882332F0660F771F881F91505040C1F74A
S1130B009E3F510544F7880F911D9695879597F957
S1130B1008955F3FACF0983E9CF0BB27869577958F
S1130B206795B79508F4B1609395C1F7BB0F58F773
S1130B3011F460FFE8CF6F5F7F4F8F4F9F4FE3CF7C
S1130B401BCF0EF041C1D3CE6894CBCEFADEC8F3EE
S1130B509923D1F3C6F3DF93CF931F930F93FF929F
S1130B60C92FDD2788232AF02197660F771F881F56
S1130B70DAF720E030E040E85FEB9FE3883920F0CB
S1130B80803E30F021968F77DFDDE4EBF0E003C0A8
S1130B90DBDDE1EEF0E073DF8B01BE01EC01FB2E47
S1130BA06F5771097595771F880B990B5FDE28E1E4
S1130BB032E741E35FE349D0AF2D9801AE01FF90E6
S1130BC00F911F91CF91DF91D0DDA2CEFA01DC010C
S1130BD0AA0FBB1F9B01AC01BF5728F42227332760
S1130BE0442750781FC0B75188F4AB2F0024469592
S1130BF037952795011CA395D2F3002069F0220FA5
S1130C00331F441FB395DAF30DD09DCD61307105C8
S1130C10A0E88A07B94630F49B01AC016627772720
S1130C2088279078309621F0208331834283538340
S1130C3008950BD06DCE5EDE28F063DE18F09523A8
S1130C4009F04FCE54CE112497CE73DEA0F3959FB6
S1130C50D1F3950F50E0551F629FF001729FBB279F
S1130C60F00DB11D639FAA27F00DB11DAA1F649F4B
S1130C706627B00DA11D661F829F2227B00DA11DFE
S1130C80621F739FB00DA11D621F839FA00D611D84
S1130C90221F749F3327A00D611D231F849F600DA5
S1130CA0211D822F762F6A2F11249F5750408AF0DE
S1130CB0E1F088234AF0EE0FFF1FBB1F661F771F6A
S1130CC0881F91505040A9F79E3F510570F009CEFE
S1130CD053CE5F3FECF3983EDCF3869577956795AA
S1130CE0B795F795E7959F5FC1F7FE2B880F911D88
S1130CF09695879597F908950CD00ACE02DE40F0B8
S1130D00F9DD30F021F45F3F19F0EBCD511134CE11
S1130D10EECD0FDE98F39923C9F35523B1F3951B58
S1130D20550BBB27AA2762177307840738F09F5F08
S1130D305F4F220F331F441FAA1FA9F333D00E2E77
S1130D403AF0E0E830D091505040E695001CCAF7E4
S1130D5029D0FE2F27D0660F771F881FBB1F2617A9
S1130D6037074807AB07B0E809F0BB0B802DBF017C
S1130D70FF2793585F4F2AF09E3F510568F0B1CD8D
S1130D80FBCD5F3FECF3983EDCF386957795679552
S1130D90B795F7959F5FC9F7880F911D969587952D
S1130DA097F90895E1E0660F771F881FBB1F62174C
S1130DB073078407BA0720F0621B730B840BBA0B0A
S1130DC0EE1F88F7E09508959F3F31F0915020F48D
S1130DD0879577956795B795880F911D9695879513
S1130DE097F90895629FD001739FF001829FE00DEF
S1130DF0F11D649FE00DF11D929FF00D839FF00D96
S1130E00749FF00D659FF00D9927729FB00DE11D41
S1130E10F91F639FB00DE11DF91FBD01CF0111241E
S1130E200895A1E21A2EAA1BBB1BFD010DC0AA1F27
S1130E30BB1FEE1FFF1FA217B307E407F50720F03F
S1130E40A21BB30BE40BF50B661F771F881F991FBA
S1130E501A9469F760957095809590959B01AC0103
S10B0E60BD01CF010895FFCF8D
S10F0E68070000000C0000000300000064
S9030000FC
